S02B0000617A7572655F757362785F6465766963655F726E6469735F65705F656B5F7261366D352E73726563F6
S3150000000040B90020996E02006D6C0200A76E0200D6
S31500000010A76E0200A76E0200A76E0200A76E02007E
S31500000020000000000000000000000000A76E0200B3
S31500000030A76E0200000000002DBD0100D5BD010025
S315000000407967020033ED010057ED01008DED0100E7
S31500000050ADED0100CDED0100F1ED010011EE010065
S31500000060000000000000000000000000000000008A
S31500000070000000000000000000000000000000007A
S31500000080000000000000000000000000000000006A
S31500000090000000000000000000000000000000005A
S31500000400FFFFFFFFFFFDFFFFFCFFFFFFFFFFFFFFFB
S31500000410FCFFFFFFFFFFFFFFFCFFFF00FFFFFF00EA
S31500000420FCFF0F20FFFF0F20FCFF7F40FFFF7F40F8
S31500000430FCFF0D40FFFF0D40FFFFFFFFFFFFFFFF2B
S31500000440FFFFFFFFFFFFFFFFFFFFFFFFFFFFFFFFB6
S31500000450FFFFFFFFFFFFFFFFFFFFFFFFFFFFFFFFA6
S31500000460FFFFFFFFFFFFFFFFFFFFFFFFFFFFFFFF96
S31500000470FFFFFFFFFFFFFFFFFFFFFFFFFFFFFFFF86
S31500000480FFFFFFFFFFFFFFFFFFFFFFFFFFFFFFFF76
S31500000490FFFFFFFFFFFFFFFFFFFFFFFFFFFFFFFF66
S315000004A0FFFFFFFFFFFFFFFFFFFFFFFFFFFFFFFF56
S315000004B0FFFFFFFFFFFFFFFFFFFFFFFFFFFFFFFF46
S315000004C0FFFFFFFFFFFFFFFFFFFFFFFFFFFFFFFF36
S315000004D0FFFFFFFFFFFFFFFFFFFFFFFFFFFFFFFF26
S315000004E0FFFFFFFFFFFFFFFFFFFFFFFFFFFFFFFF16
S315000004F0FFFFFFFFFFFFFFFFFFFFFFFFFFFFFFFF06
S3150000050010B5054C237833B9044B13B10448AFF347
S3150000051000800123237010BD9003FE1F0000000021
S315000005202894020008B5034B1BB103490348AFF3F7
S31500000530008008BD000000009403FE1F28940200FE
S3150000054080B582B000AF00237B60094B1B68002B8F
S3150000055008D1074B01221A604FF47072002105483A
S3150000056005F076F97B6818460837BD4680BD00BFA2
S31500000570AC03FE1FB003FE1F80B58AB000AFF86063
S31500000580B9607A603B60EFF31083FB61FB693B6205
S3150000059072B600BF00237B6218E065497A6A13468B
S315000005A01B019B1ADB000B4464331B68002B0AD12A
S315000005B05F497A6A13461B019B1ADB000B446433BE
S315000005C0FA681A6005E07B6A01337B627B6A072B57
S315000005D0E3D93B6ABB61BB6983F3108800BF7B6AC2
S315000005E0082B06D112220721022004F041FDFF2329
S315000005F099E04F497A6A13461B019B1ADB000B44AC
S315000006006833BA681A604A497A6A13461B019B1A0C
S31500000610DB000B4470333A681A6045497A6A134620
S315000006201B019B1ADB000B4474333A6B1A60EFF321
S3150000063005837B617A693F4B1B681343002B23D1EB
S315000006403B497A6A13461B019B1ADB000B440833AD
S3150000065001221A707A6A13461B019B1ADB000833C3
S31500000660334A134404333449184605F00BF97A6AC1
S3150000067013461B019B1ADB0040332D4A134400220C
S315000006802E49184605F046F929497A6A13461B0190
S315000006909B1ADB000B4404331B68002B2CD0244927
S315000006A07A6A13461B019B1ADB000B4404331B6852
S315000006B03A68DA601E497A6A13461B019B1ADB0008
S315000006C00B4404331B683A6B1A6119497A6A13465C
S315000006D01B019B1ADB000B4404331B689B79012B1F
S315000006E014D113497A6A13461B019B1ADB000B448B
S315000006F06E3301221A8009E00D497A6A13461B01FE
S315000007009B1ADB000B446E3300221A807B68002B99
S3150000071008D07A6A13461B019B1ADB00044A1A4466
S315000007207B681A60002318462837BD4680BD00BF87
S31500000730B003FE1FE801FE1FC87C0200E47C020035
S3150000074080B586B000AF786039603B68002B01D178
S31500000750FF234CE03B687B61EFF31083BB60BB6813
S315000007603B6172B600BF386800F08CFA3B69FB60EB
S31500000770FB6883F3108800BF7B691B7A002B2FD0A0
S315000007807B690C33184605F0AEF87B691B6E002BAF
S3150000079014D07B69012283F85C207B690C331846F0
S315000007A005F096F87B6940334FF0FF31184605F0A7
S315000007B0D9F87B69002283F85C2004E07B690C335E
S315000007C0184605F085F87B690C33184605F073F872
S315000007D07B694033184605F0B7F87B6900221A7228
S315000007E07B6900225A667B6900229A6600231846B6
S315000007F01837BD4680BDFFFF80B58CB000AF78606E
S315000008007B689B69BB627B6843225A607B68DB69B5
S315000008107B627B681B68132B48D1EFF310837B61E7
S315000008207B69BB6172B600BF0023FB620DE0A14984
S31500000830FA6A13461B019B1ADB000B4404331B6840
S31500000840002B06D0FB6A0133FB62FB6A072BEED94D
S3150000085000E000BFFB6A082B03D17B6817225A60B1
S315000008601EE09449FA6A13461B019B1ADB000B44EF
S31500000870BA6A1A608F49FA6A13461B019B1ADB0093
S315000008800B4404337A6A1A60FA6A13461B019B1AF0
S31500000890DB00884A1A447B6A9A627B6800225A60A7
S315000008A0BB693B613B6983F310887BE17B6A9B6A8A
S315000008B03B627B681B68112B00F2658101A252F82E
S315000008C023F000BF950900000D090000550900003E
S315000008D07F090000950900009509000095090000B0
S315000008E095090000870B0000870B0000870B0000AE
S315000008F0870B0000870B0000870B0000870B0000AA
S31500000900870B0000870B00007F0B00007B6A01222B
S315000009101A717B6A01225A717B6A40F2DC525A6272
S315000009207B6A00229A713B6A5B6E002B08D03B6A99
S315000009301A6F7B6ADA603B6A5A6F7B6A1A6105E056
S315000009407B6A0022DA607B6A00221A617B680022D9
S315000009505A6027E17B6A01229A713B6AB3F86C30D0
S31500000960012B04D13B6A0122A3F86E2003E03B6A07
S315000009700022A3F86E207B6800225A6012E17B6A8F
S3150000098000229A713B6A0022A3F86E207B6800223F
S315000009905A6007E17B681B69FB603B6A1B7A012B87
S315000009A004D13B6A0C33184604F09DFF3B6AB3F84A
S315000009B06E30012B40F0CC803B6A1B6E5A1C3B6AA2
S315000009C01A663B6A1B7A012B04D13B6A0C33184624
S315000009D004F07EFFFB689A68FB680E3A9A60FB6833
S315000009E05A6AFB680E325A62FB689B68023BFB61DF
S315000009F07B689A68FB691A60FB6904337A68D26877
S31500000A001A607B6ADB6819047B6A1B691A0CFB692E
S31500000A1008330A431A607B6A1A69FB690C331204AD
S31500000A201A607B681B68052B03D07B681B68062B46
S31500000A300AD1FB690C331B68FA690C3243F4006374
S31500000A4043F00603136037E07B681B68072B0AD167
S31500000A50FB690C331B68FA690C3243F4036343F0F9
S31500000A600503136028E0FB6893F83030042B08D1A7
S31500000A70FB690C331A68FB690C3342F400621A6096
S31500000A801AE0FB6893F83030062B0AD1FB690C3369
S31500000A901B68FA690C3243F40D6343F00D031360CF
S31500000AA00AE007F10C03184617F088FC7B6843221E
S31500000AB05A6077E0B003FE1FFB691B681ABAFB6930
S31500000AC01A60FB6904331A68FB69043312BA1A60A8
S31500000AD0FB6908331A68FB69083312BA1A60FB69A6
S31500000AE00C331A68FB690C3312BA1A603B6A9B6EA8
S31500000AF03A6A526EF9681046984702467B685A6011
S31500000B003B6A1B7A012B4AD13B6A0C33184604F028
S31500000B10EAFE3B6A1B6E5A1E3B6A1A663B6A1B6EEE
S31500000B20002B0FD13B6A0C33184604F0D1FE3B6A0A
S31500000B3093F85C30012B32D13B6A4033184604F0FF
S31500000B4049FF2CE03B6A0C33184604F0C1FE26E050
S31500000B503B6A1B7A012B04D13B6A0C33184604F01E
S31500000B60B7FE07F10C03184617F060FC7B680022FD
S31500000B705A6090220721022004F07AFA0FE00B4B0C
S31500000B8000221A600EE07B6844225A607B685B692B
S31500000B90002B06D07B685B6900221A6001E000BF6B
S31500000BA000E000BF00BF3037BD4680BDAC03FE1F6E
S31500000BB080B586B000AF786039607B687B617B6901
S31500000BC0B3F86E30012B04D03B46184617F0F6FBFF
S31500000BD055E03B689B680C33184604F020FF3861EB
S31500000BE03B687A6952685A637B691B68FB603B699C
S31500000BF040F6350293422ED03B6940F635029342C9
S31500000C0039D83B69B3F5006F05D03B6940F606025B
S31500000C10934210D02FE03B689A683B680E329A6088
S31500000C203B685A6A3B680E3A5A623B681946F8684E
S31500000C300DF03BFE23E03B689A683B680E329A60F3
S31500000C403B685A6A3B680E3A5A623B681946F8682E
S31500000C500AF0E2FE13E03B689A683B680E329A603F
S31500000C603B685A6A3B680E3A5A623B681946F8680E
S31500000C7010F0C9FE03E03B46184617F09FFB1837F5
S31500000C80BD4680BD80B485B000AF78607B68FB60F0
S31500000C90FB680022A3F86C20FB680022A3F86E20F4
S31500000CA000BF1437BD465DF8047B704780B58AB037
S31500000CB002AF78607B681B6ABB61BB699B6C7B611A
S31500000CC07B689B683B617B685B69022B0ED13B6945
S31500000CD07A699A607B693A691A607B695B68002B5E
S31500000CE007D07B695B687869984702E03B697A6957
S31500000CF09A603B695B6BFB6122E0FB695B6903F011
S31500000D008003002B0FD0FB699B6903F00303032BC1
S31500000D1004D17B69FA69C3F88C200EE07B69FA6915
S31500000D20C3F8902009E0FB699B6903F00303022BDB
S31500000D3003D17B69FA69C3F89420FB695B6AFB619E
S31500000D40FB69002BD9D17B685B690A2B6CD17B6967
S31500000D50D3F89430002B09D07B69D3F89030002B60
S31500000D6004D07B69D3F88C30002B01D1FF235CE0E3
S31500000D707B690122C3F808247B6993F888311B023A
S31500000D807A6992F889211343FB607B6993F88A316B
S31500000D901A067B6993F88B311B041A437B6993F817
S31500000DA08C311B0213437A6992F88D211343BB6081
S31500000DB07B6903F58862BB680093FB681D49786907
S31500000DC0FFF7DAFB7B69D3F89430DB6B4FF40062F4
S31500000DD00021184604F03CFD7B69D3F89030DB6BAC
S31500000DE04FF400620021184604F032FD7B69D3F807
S31500000DF08C30DB6B4FF400620021184604F028FDAE
S31500000E007B6903F5F673184604F087FE7B6903F5E4
S31500000E105373184604F081FE7B6903F52773184661
S31500000E2004F07BFE002300E0002318462037BD4671
S31500000E3080BD00BFCD1D000080B58EB002AF7860CA
S31500000E407B68FB62FB6A9B6CBB62674B1B6820334B
S31500000E507B62BB6AD3F8903030333B62B7E0BB6A43
S31500000E6003F5B27007F110034FF0FF320092012232
S31500000E700C2104F052FAF861FB69002B40F0A280C5
S31500000E803B6903F00803002B40F09C8070E0BB6ACE
S31500000E9003F20C43184604F026FDBB6AD3F8A431CE
S31500000EA0FB60FB68DA69BB6AC3F8A421BB6A03F27C
S31500000EB00C43184604F00CFDBB6AD3F80834012B2A
S31500000EC047D1FB689B68BB61FB685B6A2C337B611F
S31500000ED07B69B3F5006F37D83B6ADB6803F12C00FA
S31500000EE0FB685B6A1A46B96904F0B5FB3B6ADB68C6
S31500000EF00121184604F062FA3B6ADB68043379691B
S31500000F00184604F05BFA3B6ADB680833242118466E
S31500000F1004F054FA3B6ADB6803F10C02FB685B6A77
S31500000F201946104604F04AFA4FF4C0627969386AE5
S31500000F3004F014F8F861FB69002B0AD0FA6907215E
S31500000F40022004F095F804E012220721022004F0A2
S31500000F508FF8FB689A68FB680E329A60FB685A6ADB
S31500000F60FB680E3A5A6207F10C03184617F05EFA50
S31500000F70BB6AD3F8A431002B89D128E0BB6A03F2FF
S31500000F800C43184604F0AFFCBB6AD3F8A431FB60EF
S31500000F90FB68DA69BB6AC3F8A421BB6A03F20C4397
S31500000FA0184604F095FCFB689A68FB680E329A6056
S31500000FB0FB685A6AFB680E3A5A6207F10C03184638
S31500000FC017F034FABB6AD3F8A431002BD6D17B6A6A
S31500000FD01B68032B3FF443AFBB6A03F52773184620
S31500000FE004F0A8FD35E700BF185D002080B58AB083
S31500000FF000AF78607B687B627B6A9B6C3B62554B7B
S315000010001B682033FB613B6AD3F894303033BB61F5
S3150000101094E03B6A03F5D87007F108010A23002221
S3150000102017F09EF878617B69002B40F08280BB69DF
S3150000103040F2EA525A61BB6900229A61BA683B6A79
S31500001040C3F8A821BB680022DA6140F2166240F2BA
S315000010501661B86903F082FF78617B69002B62D163
S31500001060BB69DB68184604F083F90346012B65D19A
S31500001070BB699B692C2B50D9BB69DB680C331846BE
S3150000108004F076F93861BB699B692C3B3A699A4250
S315000010903DD8BB689A68BB6802329A60BB683A69F9
S315000010A05A62BB689968BB683A690A44DA60BB68E9
S315000010B09868BB69DB682C333A69194604F0CBFAA9
S315000010C0BB689B680C331B78082B17D1BB689B68E1
S315000010D00D331B78002B11D1BB689B681033184663
S315000010E004F09DFC03460E33FB60BB68FA685A6247
S315000010F0BB689968BB68FA680A44DA603B6AD3F849
S315000011004034BA6811461846FFF752FD16E06322CE
S315000011100721022003F0ACFF10E063220721022022
S3150000112003F0A6FF0AE007F10803184617F046F990
S3150000113004E012220721022003F09AFFFB691B68D4
S31500001140032B3FF466AF3B6A03F55373184604F06E
S31500001150F1FC58E7185D002080B58AB000AF7860D2
S31500001160484B1B6820337B627B6A6C333B623B6A6D
S3150000117093F85530FB613B6A54330633184604F046
S3150000118036FCB8617B681B6A7B617B699B6C3B6143
S31500001190FB69002B03D0FB69012B54D06AE03B6A44
S315000011A0DB68184604F0E4F8F860FB68023B062B9F
S315000011B029D801A252F823F0D5110000131200001D
S315000011C0DF110000E9110000F31100001312000006
S315000011D0FD110000396A386900F0FCFA1AE0396A34
S315000011E0386900F0C1FB15E0396A386900F0ACFDDA
S315000011F010E0396A386900F07DFD0BE0396A38691C
S3150000120000F078FB06E07B6A3C33184603F06CFA84
S3150000121000E000BF3B69D3F88C303033BB60BB685D
S31500001220DB6808220021184604F012FBBB68DB6865
S3150000123001221A703B6903F5B27300220121184698
S3150000124004F085F818E03B6AD8683B6903F1980119
S315000012503B69D3F82C311A4604F0FDF93B6A0322A8
S315000012609A623B69D3F82C31BA691946386A03F099
S3150000127075FE01E0FF2300E0002318462837BD462F
S3150000128080BD00BF185D002080B586B000AF7860D5
S315000012907B681B6A7B617B699B6C3B617B689B6897
S315000012A0FB60FB681B6A022B2FD13B690022C3F847
S315000012B008243B69D3F88C302621184603F03CFEFF
S315000012C03B69D3F890302621184603F035FE3B697A
S315000012D0D3F894302621184603F02EFE3B6903F519
S315000012E0B27300220821184604F031F83B699B6866
S315000012F0002B03D03B699B68386998473B69D3F854
S31500001300403419463869FFF71BFA00231846183788
S31500001310BD4680BD80B584B000AF78607B681B6831
S31500001320013B042B30D801A252F823F04D130000E4
S3150000133065130000711300007D13000041130000C7
S31500001340786800F02BF8F860FB6823E07B685B693F
S31500001350022B03D07B685B690A2B01D1002319E0BD
S31500001360572317E07868FFF7A1FCF860FB6811E0E7
S315000013707868FFF789FFF860FB680BE07868FFF78D
S31500001380EBFEF860FB6805E054220721022003F01B
S315000013906FFE542318461037BD4680BD80B58CB00D
S315000013A006AF78607B681B6A3B6140F244420021CD
S315000013B0002004F027F8F860FB68002B01D1122307
S315000013C0BFE13B69FA689A647B685B6ABB60BB688D
S315000013D01A68FB685A60BB685A68FB689A60BB6803
S315000013E01A6EFB68C3F89421BB685A6EFB68C3F893
S315000013F09821BB689A6EFB68C3F89C21FB6803F5CD
S31500001400C470BB6854330622194604F024F9FB68FD
S3150000141003F5C770BB685A330622194604F01BF958
S31500001420FB6804336C22B968184604F014F9FB68AB
S3150000143003F20C437A49184604F024FA78617B6972
S31500001440002B01D017237B617B69002B10D14FF451
S3150000145080620021002003F0D5FF0246FB68C3F836
S31500001460FC23FB68D3F8FC33002B01D112237B61EC
S315000014707B69002B1DD1FB6803F5F6703A69FB68A2
S31500001480D3F8FC3300210591002104911421039126
S31500001490142102914FF48061019100931346614A31
S315000014A0614904F001FB78617B69002B01D01623AA
S315000014B07B617B69002B10D14FF4806200210020F4
S315000014C003F0A0FF0246FB68C3F80424FB68D3F8C8
S315000014D00434002B01D112237B617B69002B1DD1C3
S315000014E0FB6803F553703A69FB68D3F804340021AE
S315000014F005910021049114210391142102914FF4C6
S315000015008061019100931346484A494904F0CCFA98
S3150000151078617B69002B01D016237B617B69002BE8
S3150000152010D14FF480620021002003F06BFF0246C9
S31500001530FB68C3F80024FB68D3F80034002B01D104
S3150000154012237B617B69002B1DD1FB6803F5277095
S315000015503A69FB68D3F80034002105910021049113
S3150000156014210391142102914FF48061019100939B
S315000015701346304A304904F097FA78617B69002BAC
S3150000158001D016237B617B69002B0CD1FB6803F528
S31500001590B2732A49184603F09BFE78617B69002BDB
S315000015A001D018237B617B69002B10D143F21022F6
S315000015B00121002003F026FF0246FB68C3F8AC2198
S315000015C0FB68D3F8AC31002B01D112237B617B6918
S315000015D0002B15D1FB6803F5D870FB68D3F8AC3146
S315000015E03C22019243F21022009240F20262144918
S315000015F016F0F6FD78617B69002B01D012237B6122
S315000016007B69002B22D1FB68703301220D491846F5
S3150000161004F080F978617B69002B15D1002390E0F6
S31500001620047D02004D170000207D0200ED0F000032
S31500001630487D0200390E00006C7D0200907D02009C
S31500001640B47D0200D07D020015237B61FB681B6F11
S31500001650002B04D0FB687033184604F075F9FB685C
S31500001660D3F8B031002B05D0FB6803F5D8731846C4
S3150000167016F078FEFB68D3F8AC31002B05D0FB687A
S31500001680D3F8AC31184604F005F8FB68D3F864319A
S31500001690002B05D0FB6803F5B273184603F030FE45
S315000016A0FB68D3F89C32002B05D0FB6803F5277343
S315000016B0184604F022FAFB68D3F80034002B05D054
S315000016C0FB68D3F80034184603F0E4FFFB68D3F850
S315000016D04C33002B05D0FB6803F55373184604F012
S315000016E00CFAFB68D3F80434002B05D0FB68D3F85A
S315000016F00434184603F0CEFFFB68D3F8EC31002B18
S3150000170005D0FB6803F5F673184604F0F6F9FB6896
S31500001710D3F8FC33002B05D0FB68D3F8FC3318460E
S3150000172003F0B8FFFB68D3F80C34002B05D0FB6838
S3150000173003F20C43184604F0BEF8F86803F0AAFF5B
S315000017407B6918461837BD4680BD00BF80B58AB094
S3150000175002AF78607B68FB61FB699B6CBB611C4BCD
S315000017601B6820337B61BB69D3F88C3030333B6117
S3150000177022E0BB6903F5B27007F108034FF0FF32B0
S3150000178000920122092103F0C8FDF860FB68002BD6
S3150000179012D1BB6803F00803002B0DD108220821E3
S315000017A0386903F0DBFBF860FB68002B04D0FA68AD
S315000017B00721022003F05CFC7B691B68032BD8D051
S315000017C0BB6903F5F673184604F0B4F9CBE700BF1E
S315000017D0185D002080B584B000AF786039603B6842
S315000017E0DB68FB60FB680833184603F0C1FD024660
S315000017F07B68C3F84021FB680C33184603F0B8FD3C
S3150000180002467B68C3F83421FB681033184603F0A0
S31500001810AFFD02467B68C3F83821FB6814331846CF
S3150000182003F0A6FD02467B68C3F83C217B680122D3
S31500001830C3F830217B689833BB602D49B86803F044
S31500001840BDFDBB6804333421184603F0B7FDBB6801
S3150000185003F108027B68D3F840311946104603F0BD
S31500001860ADFDBB680C330021184603F0A7FDBB682D
S3150000187010330121184603F0A1FDBB681433002183
S31500001880184603F09BFDBB6818330121184603F088
S3150000189095FDBB681C330021184603F08FFDBB681D
S315000018A020330121184603F089FDBB6824334FF429
S315000018B0C861184603F082FDBB6828330321184629
S315000018C003F07CFDBB682C330021184603F076FD3F
S315000018D0BB6830330021184603F070FD7B68342264
S315000018E0C3F82C21002318461037BD4680BD00BF23
S315000018F00200008080B584B000AF786039603B6834
S31500001900DB68FB60FB680833184603F031FD0246CE
S315000019107B68C3F840217B689833BB601149B8687F
S3150000192003F04CFDBB6804331021184603F046FD56
S31500001930BB6803F108027B68D3F8403119461046AC
S3150000194003F03CFDBB680C330021184603F036FD5E
S315000019507B681022C3F82C21002318461037BD4699
S3150000196080BD00BF0800008080B58AB000AF7860F7
S3150000197039600023FB603B68DB68BB61BB690833E9
S31500001980184603F0F5FC02467B68C3F84021BB69A4
S315000019900C33184603F0ECFC78617B6898333B61A6
S315000019A0B549386903F00AFD3B6903F108027B6813
S315000019B0D3F840311946104603F000FD0023FB61C1
S315000019C07B6913F1FE3F00F049817B6913F1FE3F0D
S315000019D000F262817B69A94A934200F25D817B69CC
S315000019E0A74A934208D27B69A64A93424ED87B699E
S315000019F0A54A934216D24FE17B69A3F50033A3F2C1
S31500001A000113042B00F2488101A252F823F000BF13
S31500001A10DB1B0000F51B00000F1C0000291C00004A
S31500001A20431C00007B69A3F10113A3F58073132BFC
S31500001A3000F2328101A252F823F000BF971A00008B
S31500001A40091B0000E51A0000F71A0000991C0000A7
S31500001A50D11A0000411B0000991C0000991C0000CF
S31500001A60991C0000991C0000771B0000A71B0000B2
S31500001A70991C0000991C00008F1B00002D1B000004
S31500001A80991C0000651B0000531B00007B697F4A00
S31500001A90934242D000E100233B620FE03B6A0633EB
S31500001AA09B003A691A447A493B6A51F82330194631
S31500001AB0104603F083FC3B6A01333B62744A3B6A7F
S31500001AC052F82330002BE9D13B6A9B007B62ECE0A5
S31500001AD03B69183340F2DC51184603F06FFC0423CF
S31500001AE07B62E2E03B6918330021184603F066FC8E
S31500001AF004237B62D9E03B6918330021184603F0C2
S31500001B005DFC04237B62D0E03B6918330021184654
S31500001B1003F054FC04237B62C7E03B6918330021C1
S31500001B20184603F04BFC04237B62BEE03B69183386
S31500001B3040F2EA51184603F041FC04237B62B4E00C
S31500001B403B6918335349184603F038FC04237B627B
S31500001B50ABE03B6918330021184603F02FFC042341
S31500001B607B62A2E03B6918330821184603F026FC85
S31500001B7004237B6299E03B6903F118027B681B69C9
S31500001B801946104603F01AFC04237B628DE03B697C
S31500001B9003F118027B685B691946104603F00EFCD8
S31500001BA004237B6281E07B68183307F10C01402235
S31500001BB0184603F04CFFF861FB69002B01D0FB6966
S31500001BC093E0FB687B623B6903F118007B6818337E
S31500001BD07A6A194603F03FFD67E03B6903F1180294
S31500001BE07B68D3F844311946104603F0E7FB04231B
S31500001BF07B625AE03B6903F118027B68D3F84831EF
S31500001C001946104603F0DAFB04237B624DE03B697C
S31500001C1003F118027B68D3F84C311946104603F0DD
S31500001C20CDFB04237B6240E03B6903F118027B682D
S31500001C30D3F850311946104603F0C0FB04237B62EB
S31500001C4033E03B6903F118027B68D3F85431194637
S31500001C50104603F0B3FB04237B6226E03B6903F1E5
S31500001C6018007B6803F5C7730622194603F0F3FCD8
S31500001C7006237B6219E000BF040000800501020014
S31500001C80010102001401010001010100020201002C
S31500001C900000FE1FC0D401003B691833002118461E
S31500001CA003F08CFB04237B6200BF3B690C33F969AC
S31500001CB0184603F083FB3B6914331021184603F0E2
S31500001CC07DFB3B691033796A184603F077FB7B6A24
S31500001CD018337B627B687A6AC3F82C213B6904332C
S31500001CE0796A184603F06AFBFB6918462837BD4631
S31500001CF080BD00BF80B584B000AF786039607B6876
S31500001D009833FB600F49F86803F058FBFB6804330F
S31500001D101021184603F052FBFB68083300211846D1
S31500001D2003F04CFBFB680C330021184603F046FB1E
S31500001D307B681022C3F82C21002318461037BD46B5
S31500001D4080BD00BF0600008080B586B000AF786019
S31500001D5039603B68DB687B617B690833184603F0B2
S31500001D6007FB02467B68C3F840217B690C331846A3
S31500001D7003F0FEFA38617B689833FB601249F86815
S31500001D8003F01CFBFB6803F108027B68D3F84031C3
S31500001D901946104603F012FB0023BB6000BFFB6828
S31500001DA00C33B968184603F009FB7B681022C3F8A8
S31500001DB02C21FB6804331021184603F0FFFABB6898
S31500001DC018461837BD4680BD0500008080B586B030
S31500001DD000AF786039607B68FB60FB6803F20C43F8
S31500001DE0184603F080FDFB68D3F8A431002B04D11C
S31500001DF0FB683A68C3F8A42112E0FB68D3F8A43163
S31500001E007B617B69DB693B6104E03B697B617B69E4
S31500001E10DB693B613B69002BF7D17B693A68DA6184
S31500001E20FB6803F20C43184603F052FD3B680022A0
S31500001E30DA61FB6803F5B27300220421184603F049
S31500001E4086FA002318461837BD4680BD80B582B095
S31500001E5000AF264B3B60A8220021386825F0FCF82D
S31500001E603B6803221A613B6803225A613B68204A99
S31500001E709A613B681F4ADA613B684FF400621A6256
S31500001E803B6800229A623B6800225A623B68002245
S31500001E90DA623B68164A1A663B68174A5A663B6816
S31500001EA010229A663B6800221A673B680022DA66AF
S31500001EB03B6800225A67BFF35F8F00237B600CE00C
S31500001EC07B68C3F10F030D4AD1563A687B68134409
S31500001ED00A461A707B6801337B607B680F2BEFD94B
S31500001EE0BFF35F8F00BF0837BD4680BD7007FE1F7A
S31500001EF0F07D02001808FE1F1810FE1FFC7D020070
S31500001F0080B58AB000AFF860B9607A6000233B62A2
S31500001F10FB68DB68FB61FB681B69BB61BA69FB692F
S31500001F209A4205D9BA69FB69D31A013B7B6207E07D
S31500001F30FB689A68B969FB69CB1A1344013B7B625B
S31500001F40FB689A68FB69D31A7A6A934228BF1346DC
S31500001F507B627A6A7B68934228BF13467B62FB6882
S31500001F605A68FB6913447B617A6AB968786925F017
S31500001F704BF83A6A7B6A13443B62BA687B6A13443D
S31500001F80BB607A687B6AD31A7B60FA697B6A134402
S31500001F90FB61FB689B68FA699A4201D10023FB61E9
S31500001FA0BFF35F8FFB68FA69DA607B68002BB2D1FA
S31500001FB03B6A18462837BD4680BD80B588B000AF5D
S31500001FC0F860B9607A60FB68DB68FB61FB689A6859
S31500001FD0FB69D31ABB61BA697B689A4211D9FB685F
S31500001FE05A68FB6913443B617A68B968386925F019
S31500001FF00BF8BFF35F8FFA697B681A44FB68DA60F7
S315000020001FE0BB697B61FB685A68FB6913443B614F
S315000020107A69B968386924F0F7FF7A68BB69D31A18
S315000020207B61FB685B683B61BA68BB6913447A698C
S315000020301946386924F0E8FFBFF35F8FFB687A69B9
S31500002040DA6000BF2037BD4680BD80B487B000AFE0
S3150000205078607B681B693B617B68DB68FB603A697B
S31500002060FB689A4208D87B689A68FB68D21A3B6973
S315000020701344013B7B6104E03A69FB68D31A013BD8
S315000020807B617B6918461C37BD465DF8047B70474B
S3150000209080B58CB000AFF860B9607A603E4B3B62A9
S315000020A03B6A1B785BB2002B01D1FFF7CFFEFA68C3
S315000020B013465B001344DB006033374A1344FB616D
S315000020C0BB687B62FB691B69BB62FB69DB68BB6142
S315000020D00023FB62BA6ABB699A422BD9FB699A68EC
S315000020E0BB6AD31A7B617A697B68934228BF134621
S315000020F07B61FB695A68BB6A13443B617A6939693B
S31500002100786A24F081FFFA6A7B691344FB627A6A73
S315000021107B6913447B627A687B69D31A7B60BA6AEF
S315000021207B691344BB62FB699B68BA6A9A4201D118
S315000021300023BB62BA69BB6AD31A7B617A697B6882
S31500002140934228BF13467B617B69002B19D0FB693C
S315000021505A68BB6A13443B617A693969786A24F024
S3150000216053FFFA6A7B691344FB627A6A7B691344FC
S315000021707B627A687B69D31A7B60BA6A7B6913448F
S31500002180BB62FB6A002B02D0FB69BA6A1A61FB6A62
S3150000219018463037BD4680BD7007FE1F80B586B035
S315000021A000AFF860B9607A60EFF311834FF0200159
S315000021B081F311887B617A68B968F868FFF768FF70
S315000021C038617B6983F311883B6918461837BD4629
S315000021D080BDFFFF80B588B000AFF860B9607A6057
S315000021E0BB68BB61FB685A1C13465B001344DB00EB
S315000021F01F4A13447B617B695B69022B29D0022B42
S315000022002ED8002B02D0012B13D029E07869FFF7D6
S315000022101CFF38613A697B689A4202D20023FB614F
S3150000222021E07B68FB617A68B9697869FFF7C5FECA
S3150000223019E07869FFF709FF38617A683B699342CC
S3150000224028BF1346FB61FA69B9697869FFF7B5FEDD
S3150000225009E07A68B9697869FFF752FEF86102E029
S315000022600023FB6100BFFB6918462037BD4680BDD1
S315000022707007FE1F80B588B000AFF860B9607A605D
S315000022800E4BFB61FB691B785BB2002B01D1FFF79C
S31500002290DDFDEFF311834FF0200181F31188BB615F
S315000022A07A68B968F868FFF795FF7861BB6983F3C8
S315000022B011887B6918462037BD4680BD7007FE1F12
S315000022C080B584B000AF0E4BBB60BB681B785BB2B9
S315000022D0002B01D1FFF7BAFD0A4B7B607B681B69B7
S315000022E03B607B68DB683A689A4202D00123FB6058
S315000022F001E00023FB60FB6818461037BD4680BD31
S315000023007007FE1FD007FE1F80B584B000AF78604F
S315000023100B46FB707B689B68FB60FB685A1C7B68FE
S315000023205B689A420ED87B681A68FB681344FA7891
S315000023301A70FB685A1C7B689A607B68DB685A1CBB
S315000023407B68DA607B689A687B685B689A4215D11D
S315000023507B6818697B6819687B689B681A46FFF773
S3150000236089FF02467B689B689A4204D07B684FF0DF
S31500002370FF32DA6002E07B6800229A6000BF103705
S31500002380BD4680BD80B58AB000AFF860B9607A609E
S315000023903B60BB683B6201237B620123FB6107E074
S315000023A03A6A7B68B2FBF3F33B62FB690133FB617C
S315000023B03A6A7B689A42F3D23A68FB699A4201D933
S315000023C03B68FB617B6B03F00103002B26D13B6B63
S315000023D0002B23D07B6B03F00203002B05D03B6858
S315000023E0002B02D13023FB7601E02023FB760CE0A4
S315000023F03B6B013B3B6397F91B301946F868FFF7C7
S3150000240083FFFB68DB68002B07DB3B6B002B05D0EB
S31500002410FA693B6B9A42EBD300E000BFFB68DB68CE
S31500002420002B56DB3B68012B03D93B68013B3B6025
S3150000243009E0BA687B6AB2FBF3F37B617A697B6871
S315000024409A4200D205E07B6A7A6802FB03F37B625C
S31500002450E8E7BA687B6AB2FBF3F37B617B697A6A69
S3150000246002FB03F3BA68D31ABB601C4A7B691344A8
S3150000247093F900301946F868FFF746FFFB68DB68FA
S31500002480002B08DB7A6A7B68B2FBF3F37B627B6A1C
S31500002490002BDED100E000BF7B6B03F00103002BB5
S315000024A017D03B6B002B14D00AE03B6B013B3B6320
S315000024B02021F868FFF728FFFB68DB68002B07DBA5
S315000024C03B6B002B05D0FA693B6B9A42EDD300E0DB
S315000024D000BF00BF2837BD4680BD00BF107E02008A
S315000024E080B588B002AFF860B9607A603B60BB68BF
S315000024F0002BB8BF5B423B6101237B6107E07B6831
S315000025003A6992FBF3F33B617B6901337B617B683C
S315000025103A699A42F3DA3A687B699A4201D93B688A
S315000025207B613B6A002B0AD0BB68002B04DB7B6A0D
S3150000253003F00403002B02D03B6A013B3B627B6A3B
S3150000254003F00203002B02D03B68002B1CD07B6AF1
S3150000255003F00103002B17D13B6A002B14D00AE0CD
S315000025603B6A013B3B622021F868FFF7CDFEFB6822
S31500002570DB68002B07DB3B6A002B05D07A693B6AD8
S315000025809A42EDD300E000BFFB68DB68002B4ADB14
S31500002590BB68002B07DABB685B42BB602D21F8687D
S315000025A0FFF7B2FE08E07B6A03F00403002B03D0BA
S315000025B02B21F868FFF7A8FEFB68DB68002B32DBEF
S315000025C07B6A03F00203002B1FD07B6A03F0010332
S315000025D0002B1AD13B68002B17D13B6A002B14D075
S315000025E00AE03B6A013B3B623021F868FFF78CFE4C
S315000025F0FB68DB68002B07DB3B6A002B05D07A699A
S315000026003B6A9A42EDD300E000BFFB68DB68002B13
S3150000261009DBB9687B6A01933B6A00933B687A6879
S31500002620F868FFF7AFFE00BF1837BD4680BDFFFF55
S3150000263080B5A2B002AFF860B9607A6007F1100306
S315000026403B6540237B650023BB65FB683B66002337
S31500002650FB65BB681B7887F87F30BB680133BB60BE
S3150000266097F97F30002B00F09F8197F97F30252B5B
S3150000267040F08D8100233B670123BB67BB681B7855
S3150000268087F87F3097F97F30233B0D2B3ED801A288
S3150000269052F823F0FD2600000D2700000D2700004C
S315000026A00D2700000D2700000D2700000D27000054
S315000026B00D270000ED2600000D270000CD260000A6
S315000026C00D2700000D270000DD2600003B6F43F0BC
S315000026D001033B67BB680133BB601AE03B6F43F005
S315000026E002033B67BB680133BB6012E03B6F43F0FC
S315000026F004033B67BB680133BB600AE03B6F43F0F2
S3150000270008033B67BB680133BB6002E00023BB677D
S3150000271000BFBB6F002BB1D10023FB66BB681B78E3
S3150000272087F87F3097F97F302F2B12DD97F97F30AE
S31500002730392B0EDCBB680133BB60FA6E13469B0077
S3150000274013445B001A4697F97F301344303BFB660F
S31500002750E4E700237B67BB681B7887F87F3097F92F
S315000027607F302E2B1DD1BB680133BB60BB681B7845
S3150000277087F87F3097F97F302F2B12DD97F97F305E
S31500002780392B0EDCBB680133BB607A6F13469B00A6
S3150000279013445B001A4697F97F301344303B7B673E
S315000027A0E4E7BB681B7887F87F3097F97F306C2B9E
S315000027B003D097F97F30682B07D1BB680133BB6024
S315000027C0BB681B7887F87F30EFE797F97F30252BBA
S315000027D000F0D180252BC0F2D580782B00F3D28073
S315000027E0582BC0F2CF80583B202B00F2CB8001A2A1
S315000027F052F823F0EB280000852900008529000007
S31500002800852900008529000085290000852900000A
S3150000281085290000852900008529000085290000FA
S31500002820792800009F2800008529000085290000DE
S3150000283085290000852900008529000085290000DA
S3150000284085290000852900008529000085290000CA
S3150000285085290000512900008529000085290000EE
S315000028601129000085290000C528000085290000DF
S3150000287085290000EB2800007B681B68191D7A6813
S3150000288011601B68BB67BB6F87F8673097F96720D5
S3150000289007F1500311461846FFF736FD73E07B68D3
S315000028A01B68191D7A6811601B68BB6707F1500029
S315000028B03B6F0193FB6E00937B6F0A22B96FFFF7A4
S315000028C00FFE60E07B681B68191D7A6811601B6843
S315000028D0BB67B96F07F150003B6F0193FB6E009326
S315000028E07B6F0A22FFF74EFD4DE07B681B68191DC2
S315000028F07A6811601B68BB67B96F07F150003B6FC0
S315000029000193FB6E00937B6F1022FFF73BFD3AE0CD
S315000029107B681B68191D7A6811601B68BB66BB6EF5
S315000029201B7887F87F30BB6E0133BB6697F97F3023
S31500002930002B0BD097F97F2007F15003114618465C
S31500002940FFF7E2FCFB6D002BE9DA1CE000BF1AE0A2
S315000029507B681B68191D7A6811601B68BB67B96FB5
S3150000296007F1500000230193082300930823102247
S31500002970FFF708FD07E007F1500325211846FFF78A
S31500002980C3FC00E000BFBB680133BB6007E097F9FA
S315000029907F2007F1500311461846FFF7B5FCFB6D83
S315000029A0002BBFF656AE00E000BFFB6D002B0DDD21
S315000029B0BB6D002B06D0BA6D07F110031946F868F7
S315000029C0FFF758FCFB6DBA6D1344FB65FB6D1846AB
S315000029D08037BD4680BD00BF0EB480B585B000AF60
S315000029E0786007F12003BB6007F108031A46F9690E
S315000029F07868FFF71DFEF860FB6818461437BD4679
S31500002A00BDE8804003B0704780B590B000AF0023AA
S31500002A10FB630023BB6207F12C0300221A605A6095
S31500002A20C3F8072000237B6007F108031F2200215B
S31500002A30184624F011FB00233B6007F025F90346F6
S31500002A40381D304A232124F03DFC00F069FAF86372
S31500002A50FB6B002B0CD02C490020FFF7BDFFFB6B56
S31500002A60002B05D0FA6B29490020FFF7B5FF00BE01
S31500002A70FFF726FC0346002B3ED007F128030F2262
S31500002A8019460020FFF78AFBB863BB6B03F1090206
S31500002A903B4619461E4800F0EFF9F863FB6B002B26
S31500002AA004D01C490020FFF797FF25E03B68002271
S31500002AB01A7007F12803184624F058FC02463B68B2
S31500002AC00132C3F801203B6803F109003B68D3F8E3
S31500002AD0012007F12803194624F096FA3B464FF0E9
S31500002AE0FF3219460C4808F0A1F907F128030F2216
S31500002AF00021184624F0B0FA00F010F8012006F084
S31500002B00C3FBB5E7207E0200407E0200687E02001D
S31500002B109810FE1F887E02006010FE1F90B5A9B0B7
S31500002B2002AF0023C7F894300023BB6700237B6500
S31500002B3007F158031F220021184624F08DFA07F1E9
S31500002B40780301221946994808F034F9C7F8940029
S31500002B50D7F89430002B40F01F81BB6FD3F80530B7
S31500002B6007F15400924A232124F0ACFBBB6F1B787B
S31500002B70013B082B00F2008101A252F823F000BFAE
S31500002B80A52B0000DB2B0000EB2B0000FB2B00002D
S31500002B90192C0000312C0000832C0000D52C0000DD
S31500002BA0272D000000233B6507F15003184623F04C
S31500002BB06DFF97F85330194697F8523097F8512021
S31500002BC0019200930B467B4A7B490020FFF704FFE6
S31500002BD07A490020FFF700FFD4E0BB6F09331A469D
S31500002BE077490020FFF7F8FECCE0BB6F09331A46A1
S31500002BF074490020FFF7F0FEC4E0BB6F09331B6881
S31500002C00FB67FB6F002B00F0BC80FA6F6E4900205B
S31500002C10FFF7E2FE00BEB4E0BB6F09331B68C7F8DE
S31500002C208030D7F8802069490020FFF7D5FEA9E05B
S31500002C3000233B603B1D3C220021184624F00CFA81
S31500002C40BB6F09331B68C7F88430D7F88430FB6440
S31500002C5097F84F30194697F84E301C4697F84D3086
S31500002C6097F84C2038460192009323460A46584965
S31500002C7024F05CFB3B461A4656490020FFF7ACFEA3
S31500002C8080E000233B603B1D3C220021184624F0D7
S31500002C90E3F9BB6F09331B68C7F88830D7F888306B
S31500002CA0BB6497F84B30194697F84A301C4697F89C
S31500002CB0493097F8482038460192009323460A4641
S31500002CC0434924F033FB3B461A4643490020FFF7AD
S31500002CD083FE57E000233B603B1D3C220021184643
S31500002CE024F0BAF9BB6F09331B68C7F88C30D7F8E4
S31500002CF08C307B6497F84730194697F846301C4667
S31500002D0097F8453097F844203846019200932346B9
S31500002D100A462F4924F00AFB3B461A462F49002053
S31500002D20FFF75AFE2EE000233B603B1D3C220021AC
S31500002D30184624F091F9BB6F09331B68C7F8903029
S31500002D40D7F890303B6497F84330194697F84230ED
S31500002D501C4697F8413097F8402038460192009378
S31500002D6023460A461A4924F0E1FA3B461A461C490C
S31500002D700020FFF731FE05E01A490020FFF72CFE80
S31500002D8000E000BF18490020FFF726FEBB6F18467B
S31500002D9007F0A8FCC7F89400D7F894300A2B7FF404
S31500002DA0CEAE00BF9C37BD4690BD00BF2810FE1FAB
S31500002DB0207E0200B47E0200B87E0200E08002009F
S31500002DC0B8820200C8820200687E0200D882020031
S31500002DD0F882020004830200248302004483020076
S31500002DE06C83020098830200C483020090B587B00A
S31500002DF000AF0346B9607A60FB7300233B61002392
S31500002E007B61BB6803F1090207F1100319461748F5
S31500002E1000F032F878617B69002B05D01449002058
S31500002E20FFF7DAFD00F0D0F83B69FA7B1A703C69CF
S31500002E3006F02AFF0346C4F805303B69BA68C3F8B2
S31500002E4001203B690933BA687968184624F0DCF832
S31500002E5007F110034FF0FF321946064807F0E6FF68
S31500002E6078617B6918461C37BD4690BD9810FE1FD9
S31500002E70C88302002810FE1F80B586B000AFF86038
S31500002E80B9607A6000237B6100233B6107F1100182
S31500002E904FF0FF337A68F86807F002FB78617B69C8
S31500002EA0002B02D13A69BB681A607B69184618374D
S31500002EB0BD4680BD80B5BCB006AF0023C7F8D43090
S31500002EC03B4624220021184624F0C6F807F12403C5
S31500002ED03B6038683B4603F10C013B4603F10802B0
S31500002EE000230493002303930023029300230193FA
S31500002EF0002300930B46002108F03AFAC7F8D400E5
S31500002F00FB68002B07D1012006F0BEF9D7F8D430B4
S31500002F10002BDED000E000BF00BFD837BD4680BD25
S31500002F2080B584B002AF00237B601E4B1968342342
S31500002F3000934FF480731C4A1C4807F015FB786019
S31500002F407B68002B01D07B6827E03823019314238C
S31500002F500093174B01221749174807F059FE78606E
S31500002F607B68002B04D0114807F090FB7B6814E0C7
S31500002F703823019314230093104B01221049114862
S31500002F8007F046FE78607B68002B05D0074807F0FF
S31500002F907DFB094807F0DEFE7B6818460837BD460C
S31500002FA080BD00BF7C00FE1FCC10FE1F9810FE1FC8
S31500002FB0CC11FE1F088402002810FE1FE011FE1F20
S31500002FC0188402006010FE1F80B500AF084807F0A5
S31500002FD05DFB084807F0BEFE074807F0BBFE01226E
S31500002FE006490020FFF7F8FC00BE00BF80BD00BF09
S31500002FF09810FE1F2810FE1F6010FE1F3884020066
S3150000300080B485B000AFF860B9607A603B60062393
S3150000301018461437BD465DF8047B704780B483B00C
S3150000302000AF78603960062318460C37BD465DF858
S31500003030047B704780B483B000AF786039600623A4
S3150000304018460C37BD465DF8047B704780B485B0E2
S3150000305000AFF860B9607A603B6006231846143703
S31500003060BD465DF8047B704780B483B000AF7860DE
S31500003070062318460C37BD465DF8047B704780B4BE
S3150000308085B000AFF860B9607A603B6006231846E9
S315000030901437BD465DF8047B704780B485B000AF39
S315000030A0F860B9607A60062318461437BD465DF8A5
S315000030B0047B704780B582B000AF0346FB71FB7995
S315000030C0022B05D1044B5B681946044820F0CCFF5F
S315000030D000BF0837BD4680BDA8890200745B00208A
S315000030E080B485B000AFF860B9607A603B600023B9
S315000030F018461437BD465DF8047B704780B58CB022
S3150000310002AFF860B9607A603B60BB68012B0ED1F4
S3150000311000F046F87862786A24F028F903461A46E1
S31500003120796AF86815F016FE786A23F055FFBB68D1
S31500003130022B2CD107F1180301934FF4007300936F
S31500003140154B00223968F86815F018FA38623B6AA0
S31500003150002B00D000BE104800F092F800F020F8D6
S31500003160F861F86924F002F903461A46F969F86825
S3150000317015F0F0FDF86923F02FFF4FF0F0337B6177
S3150000318007F1140300221946044807F04FFEE8230E
S3150000319018462837BD4680BDF411FE1F7C5B002013
S315000031A090B5F3B002AF3149314821F073FBC7F84F
S315000031B0BC01D7F8BC31002B00D000BE2D4A07F564
S315000031C0D87392E8030083E80300294821F0F6FB50
S315000031D0C7F8BC01D7F8BC31002B00D000BE97F869
S315000031E0B031194697F8B1311C4697F8B23197F8C5
S315000031F0B32107F5D0700192009323460A461E4973
S3150000320024F094F897F8B431194697F8B5311C466E
S3150000321097F8B63197F8B72107F5C8700192009371
S3150000322023460A46144924F081F807F5C87307F5C2
S31500003230D0723846114924F079F83B46184624F0F6
S3150000324095F80346184623F0BFFE0346C7F8B83183
S315000032503B461946D7F8B80124F068F8D7F8B831D4
S31500003260184607F5E277BD4690BD00BFD08902003B
S31500003270DC5B0020000010405884020064840200D9
S3150000328080B590B000AF78604549786824F076F84C
S31500003290F8634349002024F071F8F86307F1180336
S315000032A0F96B184624F042F83D49002024F066F8F0
S315000032B0F8633B49002024F061F8F86307F108033E
S315000032C0F96B184624F032F807F118033549184609
S315000032D024F054F8F8630023BB6312E0F86B23F084
S315000032E069FE0346D9B207F12802BB6B13440A46AE
S315000032F01A702C49002024F041F8F863BB6B0133A7
S31500003300BB63BB6B032BE9DD07F1080325491846B0
S3150000331024F034F8F86304237B6312E0F86B23F09F
S3150000332049FE0346D9B207F128027B6B13440A46CD
S315000033301A701C49002024F021F8F8637B6B0133D6
S315000033407B637B6B072BE9DD1749184821F0A2FA4E
S3150000335038633B6B002B00D000BE01221449134892
S3150000336021F00AFB38633B6B002B00D000BE07F14F
S31500003370280108230E4A0D4821F0DCFA38633B6B1E
S31500003380002B00D000BE094821F018FB38633B6BC8
S31500003390002B00D000BE00BF4037BD4680BD00BF39
S315000033A09085020094850200D0890200DC5B002033
S315000033B00000104080B400AFBFF34F8F00BF064B34
S315000033C0DB6803F4E0620449044B1343CB60BFF3AC
S315000033D04F8F00BF00BFFDE700ED00E00400FA05D7
S315000033E080B500AF0EF064FB00BF80BD80B584B031
S315000033F002AF3C2301930E4B00930E4B4FF4C46275
S315000034000D490E4814F0ECFE03467B607B68002BEA
S315000034100AD00B4A1E210320FFF7E8FC3B1D1A4683
S3150000342004210420FFF7E2FC00BF0837BD4680BD3B
S31500003430403101008825FE1F988502004C25FE1F9D
S31500003440B485020080B588B006AF00237B604FF4D8
S3150000345075630593032304934FF400630393434B6F
S315000034600293434B0193434B00936FF0FF03424A91
S315000034704249434814F01AFC03467B607B68002BE4
S315000034800AD0404A15210320FFF7B0FC3B1D1A461F
S3150000349004210420FFF7AAFC4FF402723A49384887
S315000034A014F088FB03467B607B68002B0AD0374A02
S315000034B016210320FFF79AFC3B1D1A46042104201F
S315000034C0FFF794FC2E4814F0E9FF03467B607B6807
S315000034D0002B0AD02E4A16210320FFF787FC3B1D3E
S315000034E01A4604210420FFF781FC254815F00EF842
S315000034F003467B607B68002B0AD0264A16210320F0
S31500003500FFF774FC3B1D1A4604210420FFF76EFCEE
S315000035101B4814F093FB03467B607B68002B0AD0A4
S315000035201D4A17210320FFF761FC3B1D1A460421A3
S315000035300420FFF75BFC3A464FF4FA630421104877
S3150000354014F0D0FD03467B607B68002B05D0134A40
S315000035501F210220FFF74AFC04E0114A2321022022
S31500003560FFF744FC00BF0837BD4680BD40B90020C8
S31500003570913A00004C25FE1F0302A8C0D485020024
S31500003580F413FE1FE88502004423FE1F0086020096
S315000035901886020030860200488602006086020015
S315000035A08086020080B582B000AF002300224FF46F
S315000035B080310B4801F07EFD03467B607B68002B63
S315000035C00AD0084A23210320FFF710FC3B1D1A46A8
S315000035D004210420FFF70AFC00BF0837BD4680BD62
S315000035E05859FF1FA486020080B588B006AF4FF475
S315000035F023730593124B0493124B0393124B0293BE
S315000036004FF480530193114B0093114B114A124909
S31500003610124815F0A9FA03467B607B68002B0AD096
S315000036200F4A23210320FFF7E1FB3B1D1A46042125
S315000036300420FFF7DBFB00BF0837BD4680BD00BF97
S31500003640FD300000E13000004C25FE1F40C1002087
S315000036505459FF1FF413FE1FC8860200C856FF1FE9
S31500003660E486020080B5A6B006AF0023FB67002201
S315000036700621934820F0AEFDF86700220721904806
S3150000368020F0A8FDF867002208218D4820F0A2FD51
S31500003690F867FFF70FFC002200210120FFF7A6FBC9
S315000036A0FFF79EFEFFF7A2FEFFF7CCFE854A2F210D
S315000036B00220FFF79BFBFFF775FFFFF795FF00233F
S315000036C0BB600023FB60002387F85C301E2387F86D
S315000036D05D30582387F85E30412387F85F30B82382
S315000036E087F86030782387F86130002387F86230E6
S315000036F01E2387F86330582387F86430412387F800
S315000037006530B82387F86630792387F8673040F24A
S315000037105B437B6141F22713BB6107F10803143356
S315000037200C226949184601F096FF684B0493022360
S315000037300393674B02933D230193664B00935D23EE
S31500003740654A5D21654801F005F80346BB67BB6F16
S31500003750002B0BD0624A28210320FFF747FB07F115
S3150000376078031A4604210420FFF740FB5D4A332103
S315000037700220FFF73BFB07F1080300930023012219
S3150000378059495A4800F0C0FC0346BB67BB6F002B83
S315000037900BD0574A2C210320FFF728FB07F17803AB
S315000037A01A4604210420FFF721FBFCF7C9FE034655
S315000037B0BB67BB6F002B0BD04E4A24210320FFF7BB
S315000037C015FB07F178031A4604210420FFF70EFBC8
S315000037D049494A4820F0D6FAF867FB6F002B0BD010
S315000037E0474A18210320FFF701FB07F178031A4621
S315000037F004210420FFF7FAFA424A20210220FFF7AB
S31500003800F5FA414B00936FF0FF03404A40494148A7
S3150000381014F04CFB0346BB67BB6F002B0BD03E4A34
S3150000382024210320FFF7E2FA07F178031A46042160
S315000038300420FFF7DBFA394A22210220FFF7D6FAE5
S3150000384000F0AEF807F174034FF0FF320092042245
S315000038500121304814F0F4FB0346BB67BB6F002B15
S3150000386003D02F490020FFF7B7F82E4A1C2102206B
S31500003870FFF7BCFA2C4815F031FA0346BB67BB6F5D
S31500003880002B0BD0294A22210320FFF7AFFA07F1BC
S3150000389078031A4604210420FFF7A8FA00237B6068
S315000038A03B1D4FF0FF321946214807F083FA7B682B
S315000038B0B3F1F03FF4D1C82005F0E6FCFFF77AFD3E
S315000038C0745B00200887020040870200353900003B
S315000038D08001FE1F4001FE1F8000FE1FE000FE1F4C
S315000038E0508702007887020015130000A401FE1F0E
S315000038F0AC870200D8870200C08B0200F45C00206F
S31500003900FC87020014880200F90700000301A8C022
S3150000391034880200F413FE1F408802006488020007
S3150000392088880200A8880200C856FF1FC4880200C3
S315000039307C5B002080B582B000AF78607B68012B8D
S3150000394003D07B680A2B10D020E000220121124808
S3150000395006F0EEFF01220721104820F03BFC002272
S3150000396008210E4820F036FC10E002226FF001011B
S31500003970094806F0DDFF00220721084820F02AFC4E
S3150000398001220821054820F025FC00BF0023184627
S315000039900837BD4680BD00BFB85B0020745B0020C1
S315000039A080B584B002AF00237B603B1D4FF0FF3231
S315000039B0009200220121124806F072FF7B6803F094
S315000039C00103002B0FD00F4B1B7883F00103DBB2F2
S315000039D0002B10D00C4A21210220FFF707FA094BD1
S315000039E001221A7007E0074B00221A70074A2021AD
S315000039F00220FFF7FBF900BF0837BD4680BD00BFB8
S31500003A00B85B002058590020E88802000C890200A3
S31500003A1080B58AB008AF134B1B680133114A136097
S31500003A20B0230693012305930123049315230393DF
S31500003A30152302934FF4806301930B4B00930023ED
S31500003A400A4A0B490B4807F083FB78607B68002B1A
S31500003A5003D00021074800F095F800BF0837BD469F
S31500003A6080BD00BF205C002040D10020793A0000D4
S31500003A702C8902005C59002080B582B000AF7860C6
S31500003A8000F08CF8FEF7C0FF00BF0837BD4680BDCA
S31500003A9080B582B000AF78600349786818F0CCFA38
S31500003AA000BF0837BD4680BD9C01FE1F80B584B0AF
S31500003AB002AF38230193042300930F4B01220F49D1
S31500003AC00F4807F0A5F878607B68002B03D000212B
S31500003AD00B4800F057F824220A490B4806F032FE3C
S31500003AE038603B68002B03D00021074800F04AF8F5
S31500003AF000BF0837BD4680BDB45B0020B489020014
S31500003B007C5B0020C0890200B85B002080B500AF56
S31500003B10FFF7CCFF00BF80BD80B483B000AF7860F4
S31500003B2000BF0C37BD465DF8047B704780B584B096
S31500003B3000AF78600F4B00221A600F4B00221A70FC
S31500003B401C2301220D490E4807F0D2F9F860FB68E4
S31500003B50002B03D000210A4800F014F800F066F8A4
S31500003B60FFF756FF7868FFF7D7FF00BF1037BD464F
S31500003B7080BD00BF205C0020245C0020E489020098
S31500003B80285C002080B483B000AF7860396000BE46
S31500003B9000BF0C37BD465DF8047B704780B582B028
S31500003BA000AF4FF0FF311A4807F058FA78607B688B
S31500003BB0002B03D000211648FFF7E4FF154B1B78B6
S31500003BC083F00103DBB2002B1ED0124B01221A70C8
S31500003BD0FFF79CFF104B1B68013B0F4A13600FE079
S31500003BE00B4807F097FA78607B68002B03D000211A
S31500003BF00748FFF7C7FF084B1B68013B064A1360DF
S31500003C00054B1B68002BEBD100BF0837BD4680BDB6
S31500003C10285C0020245C0020205C002080B500AFDA
S31500003C2003F0A2FA0023184680BDFFFF80B58AB0D4
S31500003C3008AF134B1B680133114A1360B023069378
S31500003C40012305930123049314230393142302935E
S31500003C504FF4805301930B4B009300230A4A0B4900
S31500003C600B4807F075FA78607B68002B03D00021BB
S31500003C700748FFF787FF00BF0837BD4680BD00BF76
S31500003C80205C002040D50020953C0000EC8B020013
S31500003C90445C002080B582B000AF7860FFF77EFFFD
S31500003CA0FFF7E0FC00BF0837BD4680BD80B5AEB06B
S31500003CB000AF78603960C04B1B682033C7F8983076
S31500003CC0D7F898301B68032B01D0542316E2D7F897
S31500003CD09830D3F8F030C7F8B4300AE0D7F8B430EB
S31500003CE05B697A689A4209D0D7F8B4301B6BC7F87B
S31500003CF0B430D7F8B430002BF0D100E000BFD7F8CD
S31500003D00B430002B06D152220721022001F0B0F96F
S31500003D105223F3E1D7F8B4309B693A689A4201D14D
S31500003D200023EBE1A44B1B68C7F89430A24B1B6839
S31500003D30D3F82831C7F8B0309F4B1B68D3F82C3125
S31500003D40C7F8AC30D4E1D7F8B0301B78C7F890305C
S31500003D50D7F8B0305B7887F88F3097F88F30022B22
S31500003D6040F0B88107F1580308229449D7F8B0000B
S31500003D7001F076FABA6ED7F89830D3F8CC309A427A
S31500003D8040F0A8813B6EC7F8AC309DE1D7F8B03063
S31500003D901B78C7F89030D7F8B0305B7887F88F304B
S31500003DA097F88F30042B40F0818107F13403092204
S31500003DB08349D7F8B00001F053FAFB6B7A689A4250
S31500003DC040F074813B6C3A689A4240F06F81D7F8B4
S31500003DD0B4305B6BC7F8A83028E02621D7F8A800D6
S31500003DE001F0AAF8D7F894309B69D7F8A8200F21DC
S31500003DF0D7F894009847D7F8A8305B6ABB67D7F81E
S31500003E00A83000221A60D7F8A83000225A60D7F8E6
S31500003E10A83000225A62D7F8A83000229A62D7F852
S31500003E20A8300022DA62BB6FC7F8A830D7F8A830EE
S31500003E30002BD2D1D7F8B43000225A63D7F8B0306D
S31500003E401B781A46D7F8AC309B1AC7F8AC30D7F8AF
S31500003E50B0301B781A46D7F8B0301344C7F8B030E4
S31500003E60E7E0D7F8B0301B78C7F89030D7F8B03015
S31500003E705B7887F88F3097F88F30052B09D0052BA4
S31500003E8000F3C880022B00F0C080042B00F0BD8038
S31500003E90C0E0D7F89830D3F8FC30C7F8A830D7F888
S31500003EA09830D3F80031C7F8A03013E0D7F8A8301F
S31500003EB01B68002B04D1D7F8A83001221A600DE048
S31500003EC0D7F8A8309033C7F8A830D7F8A030013B10
S31500003ED0C7F8A030D7F8A030002BE7D1D7F8A0302C
S31500003EE0002B01D1122309E1D7F8A8300C330622A2
S31500003EF03449D7F8B00001F0B3F9D7F8A830303319
S31500003F00C7F88030D7F8A830DB69C3F30A03C7F8CF
S31500003F109C30294B1B68D3F8A031022B1CD1D7F853
S31500003F20A8309B6903F00103002B15D0D7F8A83001
S31500003F30DB6903F4C053FB67FB6F002B0CD0FB6FF0
S31500003F40DB0AFB67FB6F0133FB67D7F89C30FA6F20
S31500003F5002FB03F3C7F89C30D7F88030D7F89C20D3
S31500003F601A62D7F88030D7F8A8209A60D7F8803040
S31500003F704FF0FF32DA64D7F8A830D7F8B4209A6247
S31500003F80D7F8A830D7F89820DA62D7F894309B692A
S31500003F90D7F8A8200E21D7F894009847C7F88400D0
S31500003FA0D7F88430002B0FD0D7F8A83000221A603B
S31500003FB0D7F88430A2E000BF185D0020D401FE1FB0
S31500003FC0DC01FE1FBC01FE1FD7F8B4305B6B002B73
S31500003FD005D1D7F8B430D7F8A8205A631BE0D7F834
S31500003FE0B4305B6BC7F8A43004E0D7F8A4305B6A42
S31500003FF0C7F8A430D7F8A4305B6A002BF5D1D7F800
S31500004000A430D7F8A8205A6205E0D7F89030C7F850
S31500004010AC3000E000BFD7F8AC20D7F89030D31A08
S31500004020C7F8AC30D7F8B020D7F890301344C7F8AB
S31500004030B030D7F8AC30002B7FF413AFD7F8B430DC
S315000040400C3307F134012422184601F004FB2D4BF2
S315000040501B68D7F8B4205269583253F82230C7F893
S315000040608830D7F88830002B04D0D7F888301B6CFE
S31500004070002B01D1572341E00623BB60D7F8B430AB
S315000040803B61D7F88830BB62D7F88830D7F8B420C0
S31500004090C3F81021D7F888305B6C07F10802104688
S315000040A09847C7F88400D7F8843027E0D7F8AC20C3
S315000040B0D7F89030D31AC7F8AC30D7F8B020D7F875
S315000040C090301344C7F8B030D7F8AC30002B7FF4EB
S315000040D05DAE12E0D7F8AC20D7F89030D31AC7F807
S315000040E0AC30D7F8B020D7F890301344C7F8B030CA
S315000040F0D7F8AC30002B7FF426AEFF231846B8372E
S31500004100BD4680BD185D002080B594B000AFF86054
S31500004110B9607A603B6000237B6107F114033F229C
S315000041201946F86801F093FC78647B6C002B01D08B
S315000041307B6C46E0254B1B68D3F85C31FB6400239F
S31500004140BB6436E0FB6C1B6C002B2BD1F86C7B69D7
S3150000415001331A46F96801F07EFAFB6CBA685A64B4
S31500004160FB6CBA6DC3F80421FB6C7A68C3F80C21AA
S31500004170FB6C3A68C3F808210523BB61BB6DFB6382
S31500004180FB6CBB6307F11802BB681046984778645E
S315000041907B6C002B01D07B6C13E0FB6C01221A6454
S315000041A000230EE0FB6C03F58A73FB64BB6C0133E2
S315000041B0BB64064B1B68D3F85831BA6C9A42C1D31C
S315000041C0122318465037BD4680BD00BF185D00203B
S315000041D080B58AB000AFF860B9607A602A4B1B6878
S315000041E0FB61294B1B682033BB61BB693C337B6198
S315000041F0FB6803F00303002B02D0022B11D035E03D
S31500004200BB68012B3AD1204B1B68D3F8A831002B91
S3150000421005D01D4B1B680022C3F8AC212EE05423A9
S315000042202EE0BB69D3F8F0307B621CE07B6A5B6BE7
S315000042303B6212E03B6A5B697A689A420AD1FB6983
S315000042409B693A6A1021F86998473B6A00225A60CE
S31500004250002315E03B6A5B6A3B623B6A002BE9D1AF
S315000042607B6A1B6B7B627B6A002BDFD1FB699B69D8
S315000042707A691421F8699847002301E000BF0023FA
S3150000428018462837BD4680BD185D002080B5ACB005
S3150000429000AF786007F1580320220021184622F06B
S315000042A0DBFE0023C7F89C300023C7F894300023B8
S315000042B0C7F89030BC4B1B68C7F88830BA4B1B68F0
S315000042C02033C7F884300023C7F89830D7F88430F5
S315000042D0D3F8CC307A689A4201D10023A4E1B24BDC
S315000042E01B68D3F82831C7F8AC30AF4B1B68D3F83E
S315000042F02C31C7F8A83027E0D7F8AC301B78C7F8C0
S315000043008030D7F8AC305B7887F87F3097F87F300D
S31500004310022B0BD107F158030822A449D7F8AC00A9
S3150000432000F09EFFBB6E7A689A4212D0D7F8A8209A
S31500004330D7F88030D31AC7F8A830D7F8AC20D7F80A
S3150000434080301344C7F8AC30D7F8A830002BD3D14F
S3150000435000E000BFD7F8A830002B04D17B68002B03
S3150000436001D0FF2360E1D7F88430D3F8CC30002B9E
S315000043702DD0D7F88430D3F8F030C7F8A43022E037
S315000043800323BB60D7F8A4303B61D7F8A4305B6841
S31500004390C7F8A030D7F8A030BB62D7F8A030002B02
S315000043A006D0D7F8A0305B6C07F108021046984794
S315000043B0D7F8A4301B6BBB67D7F8A40000F07EFBD0
S315000043C0BB6FC7F8A430D7F8A430002BD8D1D7F8E4
S315000043D084300022C3F8CC20D7F8843001221A603A
S315000043E0D7F888309B6901221321D7F888009847AF
S315000043F07B68002B01D1002316E1D7F884307A6858
S31500004400C3F8CC20D7F88430D03308226749D7F8D0
S31500004410AC0000F025FF3B6F03F04003002B01D0FA
S31500004420022200E00122604B1B68C3F8A4213B6F07
S315000044305A095D4B1B6802F00102C3F8A8213B6EC6
S31500004440C7F8A830DEE0D7F8AC301B78C7F8803064
S31500004450D7F8AC305B7887F87F3097F87F300B2B36
S315000044600ED10123C7F89830D7F8AC3002331B7849
S31500004470C7F89430D7F8AC3003331B78C7F89030C0
S3150000448097F87F30042B40F0AF8007F13403092200
S315000044904749D7F8AC0000F0E3FE3B6C002B40F038
S315000044A0A380D7F89830012B57D1FB6BD7F894200F
S315000044B09A423DD13C4B1B68D3F85C31C7F8A0301B
S315000044C00023C7F88C302AE0D7F8A0301B6C012BEC
S315000044D01AD1FA6BD7F8A030D3F808319A4213D123
S315000044E0D7F8A030D3F80C317A689A420CD12E4B0B
S315000044F01B68FA6B5832D7F8A01043F82210D7F889
S31500004500A030C7F89C301BE0D7F8A03003F58A73BB
S31500004510C7F8A030D7F88C300133C7F88C30224B5F
S315000045201B68D3F85831D7F88C209A42CCD307E0D1
S315000045301D4B1B68FA6B5832D7F89C1043F82210B3
S31500004540D7F89030013BC7F89030D7F89030002B61
S3150000455043D10023C7F898303FE0134B1B68D3F8CC
S315000045605C31C7F8A0300023C7F88C302DE0D7F8AF
S31500004570A0301B6C012B1DD1FA6BD7F8A030D3F8F5
S3150000458008319A4216D1D7F8A030D3F80C317A68A0
S315000045909A420FD1044B1B68FA6B5832D7F8A01019
S315000045A043F8221019E000BF185D0020D401FE1F59
S315000045B0DC01FE1FD7F8A03003F58A73C7F8A030D8
S315000045C0D7F88C300133C7F88C30194B1B68D3F8F9
S315000045D05831D7F88C209A42C9D30022D7F8A810B0
S315000045E0D7F8AC0000F0B2FAD7F8A820D7F8803098
S315000045F0D31AC7F8A830D7F8AC20D7F880301344C0
S31500004600C7F8AC30D7F8A830002B7FF41CAFD7F82A
S31500004610843003221A60D7F888309B69032213215D
S31500004620D7F88800984700231846B037BD4680BDA6
S31500004630185D002080B592B000AFFF233B64294B84
S315000046401B68FB63274B1B682033BB63BB6B1B6874
S31500004650032B23D1BB6BD3F8F0307B6418E0032324
S315000046607B607B6CFB607B6C5B687B637B6B7B62DC
S315000046707B6B002B04D07B6B5B6C3A1D1046984716
S315000046807B6C1B6B3B63786C00F018FA3B6B7B64AE
S315000046907B6C002BE3D1BB6B01221A60BB6B1B68E2
S315000046A0012B07D1FB6B9B69BA6B3C320F21F86B70
S315000046B098473864BB6B0022C3F8CC20BB6B002242
S315000046C01A60084B1B68D3F8C431002B05D0054B84
S315000046D01B68D3F8C4310A2098473B6C1846483704
S315000046E0BD4680BD185D002080B588B000AF7860FB
S315000046F0174B1B68BB61FF23FB61EFF310833B6124
S315000047003B697B6172B600BF114B1B681B6A002BAD
S3150000471013D07B685B68022B0FD0BB699B697A68F4
S315000047201421B8699847F8617B689B6903F0030315
S31500004730002B02D07B6802225A607B69FB60FB6813
S3150000474083F3108800BFFB6918462037BD4680BD3D
S31500004750185D002080B594B000AFF860B9607A604B
S315000047603B60954B1B6820337B62934B1B68FA6852
S31500004770C3F83821904B1B68BA68C3F83C218E4BAE
S315000047801B687A68C3F830218B4B1B683A68C3F8FC
S315000047903421894B1B68BA6DC3F84021864B1B68D0
S315000047A0FA6DC3F84421844B1B683A6EC3F848215E
S315000047B0814B1B687A6EC3F84C217F4B1B68022223
S315000047C0C3F858217C4B1B68BA6EC3F8C4214FF45A
S315000047D00A720021002000F015FE38623B6A002BA9
S315000047E001D1122361E1744B1B683A6AC3F85C215C
S315000047F07B6A6C33FB614FF480720121002000F06C
S3150000480001FE0246FB69DA60FB69DB68002B02D118
S315000048101223BB6401E00023BB6400237B640023F6
S315000048203B640023FB63BB6C002B40F09080624B23
S315000048301B68D3F83031FB625F4B1B68D3F8343109
S31500004840BB620023BB6300237B6300233B6354E00E
S31500004850FB6A1B78BB61FB6A5B78FB75FB7D022BF1
S3150000486029D0042B3ED1FB6A03331B78002B0BD1D6
S315000048707A6B3B6B13447B63FB6A04331B783B63A5
S31500004880BB6B0133BB630AE0FB6A04331B781A4631
S315000048903B6B934203D2FB6A04331B783B63FB6A90
S315000048A002331B781A46FB6B93421DD2FB6A023316
S315000048B01B78FB6318E0BA6B7B6C9A4201D9BB6B21
S315000048C07B640023BB637A6B3B6B13447B637A6B1D
S315000048D03B6C9A4201D97B6B3B6400237B630023CC
S315000048E03B6302E000BF00E000BFBA6ABB69D31AAF
S315000048F0BB62FA6ABB691344FB62BB6A002BA7D191
S315000049007A6B3B6B13447B637A6B3B6C9A4201D99F
S315000049107B6B3B64BA6B7B6C9A4201D9BB6B7B6445
S315000049207B6C002B06D142220321022000F0A0FB63
S315000049304223BB64BB6C002B09D1FB6B0F2B06D942
S3150000494012220321022000F093FB1223BB64BB6CEE
S31500004950002B18D17B6A7A6CC3F8F8207B6A3A6C14
S31500004960C3F8002138237A6C0021002000F04EFEA7
S3150000497038613B69002B02D11223BB6403E07B6ADA
S315000049803A69C3F8F4203B6C002B46D0BB6C002B75
S3150000499043D190233A6C0021002000F037FEF864E2
S315000049A0FB6C002B02D11223BB6438E07B6AFA6CE5
S315000049B0C3F8FC2023E000BF185D00204FF400621E
S315000049C00121002000F01EFD0246FB6CDA63FB6C41
S315000049D0DB6B002B02D11223BB641DE0FB6C603342
S315000049E000223449184600F095FFB864BB6C002BD2
S315000049F002D01523BB640FE0FB6C9033FB647B6A2B
S31500004A00D3F8FC103A6C1346DB0013441B010B442D
S31500004A10FA6C9A42D2D302E001E00023FB64BB6C3D
S31500004A20002B01D1002340E0FB6C002B21D014E0C9
S31500004A30FB6C1B6E002B04D0FB6C6033184600F039
S31500004A4083FFFB6CDB6B002B04D0FB6CDB6B184627
S31500004A5000F020FEFB6C903BFB647B6AD3F8FC30D5
S31500004A60FA6C9A42E4D27B6AD3F8FC30184600F01E
S31500004A7011FE7B6AD3F8F430002B05D07B6AD3F89D
S31500004A80F430184600F006FE7B6A9B6F002B04D0BC
S31500004A907B6A9B6F184600F0FDFD074B1B68D3F839
S31500004AA05C31184600F0F6FDBB6C18465037BD4623
S31500004AB080BD00BFC08C0200185D002080B586B0A6
S31500004AC000AF7860204B1B6820333B617B685B6BD3
S31500004AD07B611CE07B69FB60FB685B6A7B611A4B50
S31500004AE01B68BB60BB689B69FA680F21B86898476A
S31500004AF0FB6800221A60FB6800225A60FB680022ED
S31500004B005A62FB6800229A62FB680022DA627B69BD
S31500004B10002BDFD17B681A6B3B69C3F8F0207B68FA
S31500004B2000225A607B6800229A607B6800221A6322
S31500004B307B6800225A637B6800221A6000231846AD
S31500004B401837BD4680BD00BF185D002080B592B005
S31500004B5000AFF860B9607A60824B1B68BB62814B1C
S31500004B601B6820337B627B6AD3F8F4307B647B6AF4
S31500004B70D3F8F830FB6309E07B6C1B68002B09D087
S31500004B807B6C38337B64FB6B013BFB63FB6B002B5D
S31500004B90F2D100E000BFFB6B002B01D11223DDE058
S31500004BA07B6C01221A607B6C0C3309226E49F86813
S31500004BB000F056FB7B6AD3F8F030002B04D17B6AF9
S31500004BC07A6CC3F8F0200EE07B6AD3F8F0303B64D1
S31500004BD002E03B6C1B6B3B643B6C1B6B002BF8D100
S31500004BE03B6C7A6C1A63FB681B781A46BB689B1A87
S31500004BF0BB60FB681B781A46FB681344FB60A4E0A5
S31500004C00FB681B78FB61FB685B78FB76FB7E052BFC
S31500004C1009D0052B00F39080022B00F08780042B2F
S31500004C2000F0848088E07B6AD3F8FC30BB637B6A43
S31500004C30D3F800313B630DE0BB6B1B68002B03D13F
S31500004C40BB6B01221A6008E0BB6B9033BB633B6B06
S31500004C50013B3B633B6B002BEED13B6B002B01D141
S31500004C6012237BE0BB6B0C3306224049F86800F048
S31500004C70F7FABB6B30337B61BB6BDB69C3F30A03AB
S31500004C80FB62384B1B68D3F8A031022B18D1BB6BE3
S31500004C909B6903F00103002B12D0BB6BDB6903F4A5
S31500004CA0C0533B613B69002B0AD03B69DB0A3B6181
S31500004CB03B6901333B61FB6A3A6902FB03F3FB6222
S31500004CC07B69FA6A1A627B69BA6B9A607B694FF0F4
S31500004CD0FF32DA64BB6B7A6C9A62BB6B7A6ADA6211
S31500004CE0BB6A9B69BA6B0E21B86A984738623B6A01
S31500004CF0002B04D0BB6B00221A603B6A2EE07B6C53
S31500004D005B6B002B03D17B6CBA6B5A6315E07B6C33
S31500004D105B6B7B6302E07B6B5B6A7B637B6B5B6AD3
S31500004D20002BF8D17B6BBA6B5A6206E0786C00F008
S31500004D301FF838623B6A11E000BFBA68FB69D31AF4
S31500004D40BB60FA68FB691344FB60BB68002B7FF409
S31500004D5057AF786C00F00CF838623B6A1846483753
S31500004D60BD4680BD185D0020DC01FE1FBC01FE1F94
S31500004D7080B590B000AF7860244B1B687A685269A2
S31500004D80583253F82230FB63FB6B002B01D15723BB
S31500004D9038E01E4B1B682033BB630123BB607B6876
S31500004DA03B617B681B6AFB617B685B6A3B627B6875
S31500004DB09B6A7B62BB6B1B6ABB61BB6B5B6A7B617D
S31500004DC0FB6B7A68C3F81021FB6B5B6C07F108027A
S31500004DD01046984778637B6B002B12D1FB6BBB6246
S31500004DE00223BB60FB6B5B6C07F108021046984719
S31500004DF078637B6B002B02D17B68FA6B5A607B6B06
S31500004E0000E0572318464037BD4680BD185D002098
S31500004E1080B58AB000AFF860B9607A60294B1B682C
S31500004E20FB61284B1B682033BB61BB693C337B614C
S31500004E30FB6803F00303002B02D0022B14D035E0ED
S31500004E40BB68012B0ED11F4B1B68D3F8A831002B72
S31500004E5006D01C4B1B680122C3F8AC2100232CE0B2
S31500004E6054232AE0542328E0BB69D3F8F0307B6250
S31500004E7019E07B6A5B6B3B620FE03B6A5B697A68B1
S31500004E809A4207D1FB699B693A6A1421F8699847E7
S31500004E90002312E03B6A5B6A3B623B6A002BECD163
S31500004EA07B6A1B6B7B627B6A002BE2D1FB699B6989
S31500004EB07A691421F8699847002318462837BD46B1
S31500004EC080BD00BF185D002080B588B000AF786057
S31500004ED03960184B1B68FB617B683A685A62EFF3CE
S31500004EE010837B617B69BB6172B600BF7B681B6800
S31500004EF0012B14D1FB699B697A680D21F8699847E3
S31500004F00BB693B613B6983F3108800BF7B68042261
S31500004F101A607B683033184600F05CFD05E0BB691B
S31500004F20FB60FB6883F3108800BF00231846203718
S31500004F30BD4680BD185D002080B584B000AF7860A6
S31500004F4039607B683033FB603968F868FFF7BCFF6F
S31500004F50002318461037BD4680BDFFFF80B58CB0D4
S31500004F6000AFF860B9607A60FB68DB6D012B01D198
S31500004F70002376E0EFF31083BB61BB69FB6272B678
S31500004F8000BF3A4B1B681B6ABB62BB6A012B05D08C
S31500004F90BB6A022B02D0BB6A032B15D1FB68012228
S31500004FA01A60FB6A7B617B6983F3108800BF2F4B15
S31500004FB01B687B62FB689B683B623B6A9B6903F0EC
S31500004FC00303002B0BD11BE0FB6A3B613B6983F3B8
S31500004FD0108800BF252344E0642000F027F93B6ACF
S31500004FE05B68022BF8D03B6A5B6903F08003002BF9
S31500004FF003D0FB6803229A6202E0FB6802229A62EF
S31500005000FB689B6A032B14D1BB68002B11D07A680E
S31500005010BB689A420DD03B6ADA69BB68B3FBF2F112
S3150000502001FB02F29B1A002B03D1FB6801221A65D1
S3150000503002E0FB6800221A65FB6800229A61FB68A1
S31500005040BA685A61FB68BA68DA61FB68DA68FB68B5
S315000050501A617B6A9B69FA680C21786A9847F8613D
S31500005060FB6918463037BD4680BD00BF185D00207D
S3150000507080B584B000AFF860B9607A600C4B1B68ED
S315000050807A681A650A4B1B685A6D01325A65084BD5
S315000050901B689B6D002B06D0054B1B689B6D7A68C1
S315000050A0B968F868984700BF1037BD4680BD00BF95
S315000050B0205D002080B58AB000AFF860B9607A60E4
S315000050C03B60BA680021F86800F0C2FB534AFB68EF
S315000050D013605C237B62FA687B6A1344504A136050
S315000050E07B6A03F5E8737B62FA687B6A13444D4A70
S315000050F013607B6A03F5E8737B62484B1B68F968AB
S315000051007A6A0A441A60454B1B681B683B623B6A15
S315000051100F333B623B6A23F00F033B62FA68BB68BE
S315000051201344FB61FB693A6A9A4201D3122371E088
S31500005130F9693A4B1B683A6A8A1A5A60374B1A68F9
S31500005140364B1B6852689A60344B1B683A6A1A6081
S31500005150324B1B681B68BB61304B1B685B68A3F155
S315000051601002BB691A60BB6900225A607B68002B7B
S3150000517012D12A4B1A68294B1B6852681A61274BB1
S315000051801A68264B1B6892685A61244B1A68234B8F
S315000051901B681268DA602FE07B683B623B6A0F335C
S315000051A03B623B6A23F00F033B621C4B1B683A6869
S315000051B00F3A1A61194B1A68184B1B6812695A6123
S315000051C0164B1B683A6ADA60144B1B68D868134B97
S315000051D01B681B691A46002100F03AFB0F4B1B683F
S315000051E0DB68BB610D4B1B681B69A3F11002BB6931
S315000051F01A60BB6900225A60084B1B681C330A49B7
S31500005200184600F03FFB78617B69002B01D017231D
S3150000521000E0002318462837BD4680BD205D0020EB
S315000052201C5D0020185D0020E08C020080B584B073
S3150000523000AF78607B684FF47A7202FB03F3074A8B
S31500005240A2FB03239B09FB60FB680133FB60F86844
S3150000525004F01AF800BF1037BD4680BDD34D62106A
S3150000526080B584B000AFF860B9607A603B6026E034
S31500005270BB685A1CBA601B78022B0BD0042B13D1C7
S31500005280F86800F075F802463B681A60FB6804335C
S31500005290FB6011E0F86800F0AAFB02463B681A6062
S315000052A0FB680233FB6007E0FB681B781A463B6825
S315000052B01A60FB680133FB603B6804333B607B6824
S315000052C05A1E7A60002BD3D100BF1037BD4680BD71
S315000052D080B584B000AF7860396024223968786878
S315000052E005F030FAF860FB68002B04D0182208217C
S315000052F00220FFF7BDFEFB6818461037BD4680BD8D
S3150000530080B584B000AF7860786805F09DFAF860E3
S31500005310FB6818461037BD4680BD80B588B002AF21
S31500005320F860B9607A603B6007F110023B6A00934F
S3150000533013467A68B968F86805F0B2FA78613A698E
S315000053403B681A607B6918461837BD4680BD80B534
S3150000535086B000AFF860B9607A607A68B968F868B4
S3150000536005F0E6FA78617B6918461837BD4680BDB8
S3150000537080B485B000AF78607B685A1C7A601B7871
S31500005380FB607B685A1C7A601B781B02FA68134321
S31500005390FB607B685A1C7A601B781B04FA6813430F
S315000053A0FB607B681B781B06FA681343FB60FB688F
S315000053B018461437BD465DF8047B704780B483B049
S315000053C000AF786039607B685A1C7A603A68D2B25E
S315000053D01A703B68190A7B685A1C7A60CAB21A703E
S315000053E03B68190C7B685A1C7A60CAB21A703B6813
S315000053F01B0EDAB27B681A7000BF0C37BD465DF82B
S31500005400047B704780B58CB000AFF860B9607A60F5
S315000054107D4B1B681C33184600F065FAFB68B3F138
S31500005420FF3F01D10023FB60FB680E2B01D80F2341
S31500005430FB60FB687B62FB680133FB607B680F33B4
S3150000544023F00F037B607A687B6A13441033194696
S31500005450B86800F0BBF9F862FB6A002B0CD16A4B06
S315000054601B681C33184600F033FA1222082102206A
S31500005470FFF7FEFD0023C3E0FB6A10333B62FB68C7
S315000054805A1E3B6A1340002B26D17B681033FA6AFA
S315000054901344FB61FB6A9A68FB699A60FB69FA6AC6
S315000054A0DA60FB6A1A687B68D31AA3F11002FB69FB
S315000054B01A60FB6900225A60FB6A7A681A60FB6A06
S315000054C0FA699A60BB6843F00042FB6A5A60FB6A5D
S315000054D01B681033BB625EE03B6A10333B62FA68BE
S315000054E03B6A1344013B3B62FB685B423A6A1340EA
S315000054F03B623B6A103BFB61FB69FA6ADA60FB6A56
S315000055009A68FB699A60FB6A1A68FB691A60BB684D
S3150000551043F00042FB695A60FB6A10333B62FB6A48
S31500005520FA699A60FA693B6AD21AFB6A1A60FB69E1
S315000055301A68FB6A1B68D31AA3F11002FB691A608A
S31500005540FB691A687B68D31ABB61BB69102B1CD92F
S31500005550FA697B68134410337B61FB699A687B693F
S315000055609A607B69FA69DA60BB69A3F110027B690C
S315000055701A607B6900225A60FB697A699A60FB6946
S315000055801A68BB69D21AFB691A60FB691B6810337B
S31500005590BB62FB69FB62FB6A10333B617A680021E0
S315000055A0386900F055F9184B1B68DA68164B1B680A
S315000055B01B689A4208D1144B1B689968124B1B68EA
S315000055C0BA6A8A1A9A6014E0BB68012B08D10E4B9E
S315000055D01B6859690C4B1B68BA6A8A1A5A6108E03B
S315000055E0094B1B689968084B1B68BA6A8A1A9A6045
S315000055F000BF054B1B681C33184600F069F93B6970
S3150000560018463037BD4680BD205D002080B584B089
S3150000561000AFF860B9607A603B603B68002B0AD047
S3150000562000217A683B68A3FB0223002B00D00121EE
S315000056300B46002B0AD17B683A6802FB03F31A4635
S31500005640B968F868FFF7DEFE034600E00023184657
S315000056501037BD4680BD80B487B000AFF860B96032
S315000056607A60BB687B61FB683B6107E07A69531C23
S315000056707B613B69591C396112781A707B685A1E26
S315000056807A60002BF2D100BF1C37BD465DF8047B63
S315000056907047FFFF80B586B000AF7860494B1B6846
S315000056A01C33184600F01FF97B68103B7B617B6951
S315000056B01B681033FB607B695B68B3F1004F10D049
S315000056C07B695B68404A93420BD03E4B1B681C3398
S315000056D0184600F0FDF8192208210220FFF7C8FC41
S315000056E06CE07B6900225A6007E07B69DB685B68D7
S315000056F0002B07D17B69DB687B617B69DB68002B4C
S31500005700F3D100E000BF7B699B683B611AE03B690F
S315000057105B68002B06D07B693A699A603B697A69B7
S31500005720DA6012E03B699A687B699A607B691A685D
S315000057303B691B68134403F110027B691A603B69DD
S315000057409B683B613B69002BE1D11E4B1B68DA6805
S315000057501C4B1B681B689A4208D11A4B1B68996838
S31500005760184B1B68FA680A449A6020E0154B1B68C0
S315000057701B68BB607A69BB689A4210D3114B1B68E1
S315000057805B68BA6813447A699A4208D20D4B1B6863
S3150000579099680C4B1B68FA680A449A6007E0094B43
S315000057A01B685969074B1B68FA680A445A61054B1E
S315000057B01B681C33184600F08BF800BF1837BD462F
S315000057C080BD00BF205D00200100008080B485B050
S315000057D000AF786039600023BB607B68002B03D084
S315000057E07B68012B05D009E0184B1B681B68FB6022
S315000057F006E0164B1B68DB68FB6001E000231EE039
S3150000580019E0FB685B68002B12D1FB681B683A68DD
S315000058109A420DD2BB68002B02D1FB68BB6007E041
S31500005820FB681A68BB681B689A4201D2FB68BB60BA
S31500005830FB689B68FB60FB68002BE2D1BB681846DF
S315000058401437BD465DF8047B704700BF205D00201D
